{
  "_format": "hh-sol-artifact-1",
  "contractName": "CustomDex",
  "sourceName": "contracts/CustomEx.sol",
  "abi": [
    {
      "inputs": [],
      "name": "_historyIndex",
      "outputs": [
        {
          "internalType": "uint256",
          "name": "",
          "type": "uint256"
        }
      ],
      "stateMutability": "view",
      "type": "function"
    },
    {
      "inputs": [],
      "name": "ethValue",
      "outputs": [
        {
          "internalType": "uint256",
          "name": "",
          "type": "uint256"
        }
      ],
      "stateMutability": "view",
      "type": "function"
    },
    {
      "inputs": [],
      "name": "getAllHistory",
      "outputs": [
        {
          "components": [
            {
              "internalType": "uint256",
              "name": "historyId",
              "type": "uint256"
            },
            {
              "internalType": "string",
              "name": "tokenA",
              "type": "string"
            },
            {
              "internalType": "string",
              "name": "tokenB",
              "type": "string"
            },
            {
              "internalType": "uint256",
              "name": "inputValue",
              "type": "uint256"
            },
            {
              "internalType": "uint256",
              "name": "outputValue",
              "type": "uint256"
            },
            {
              "internalType": "address",
              "name": "userAddress",
              "type": "address"
            }
          ],
          "internalType": "struct CustomDex.History[]",
          "name": "",
          "type": "tuple[]"
        }
      ],
      "stateMutability": "view",
      "type": "function"
    },
    {
      "inputs": [
        {
          "internalType": "string",
          "name": "tokenName",
          "type": "string"
        },
        {
          "internalType": "address",
          "name": "_address",
          "type": "address"
        }
      ],
      "name": "getBalance",
      "outputs": [
        {
          "internalType": "uint256",
          "name": "",
          "type": "uint256"
        }
      ],
      "stateMutability": "view",
      "type": "function"
    },
    {
      "inputs": [],
      "name": "getEthBalance",
      "outputs": [
        {
          "internalType": "uint256",
          "name": "",
          "type": "uint256"
        }
      ],
      "stateMutability": "view",
      "type": "function"
    },
    {
      "inputs": [
        {
          "internalType": "string",
          "name": "tokenName",
          "type": "string"
        }
      ],
      "name": "getName",
      "outputs": [
        {
          "internalType": "string",
          "name": "",
          "type": "string"
        }
      ],
      "stateMutability": "view",
      "type": "function"
    },
    {
      "inputs": [
        {
          "internalType": "string",
          "name": "tokenName",
          "type": "string"
        }
      ],
      "name": "getTokenAddress",
      "outputs": [
        {
          "internalType": "address",
          "name": "",
          "type": "address"
        }
      ],
      "stateMutability": "view",
      "type": "function"
    },
    {
      "inputs": [
        {
          "internalType": "string",
          "name": "tokenName",
          "type": "string"
        }
      ],
      "name": "getTotalSupply",
      "outputs": [
        {
          "internalType": "uint256",
          "name": "",
          "type": "uint256"
        }
      ],
      "stateMutability": "view",
      "type": "function"
    },
    {
      "inputs": [
        {
          "internalType": "string",
          "name": "tokenName",
          "type": "string"
        }
      ],
      "name": "swapEthToToken",
      "outputs": [
        {
          "internalType": "uint256",
          "name": "",
          "type": "uint256"
        }
      ],
      "stateMutability": "payable",
      "type": "function"
    },
    {
      "inputs": [
        {
          "internalType": "string",
          "name": "tokenName",
          "type": "string"
        },
        {
          "internalType": "uint256",
          "name": "_amount",
          "type": "uint256"
        }
      ],
      "name": "swapTokenToEth",
      "outputs": [
        {
          "internalType": "uint256",
          "name": "",
          "type": "uint256"
        }
      ],
      "stateMutability": "nonpayable",
      "type": "function"
    },
    {
      "inputs": [
        {
          "internalType": "string",
          "name": "srcTokenName",
          "type": "string"
        },
        {
          "internalType": "string",
          "name": "destTokenName",
          "type": "string"
        },
        {
          "internalType": "uint256",
          "name": "_amount",
          "type": "uint256"
        }
      ],
      "name": "swapTokenToToken",
      "outputs": [],
      "stateMutability": "nonpayable",
      "type": "function"
    },
    {
      "inputs": [
        {
          "internalType": "string",
          "name": "",
          "type": "string"
        }
      ],
      "name": "tokenInstanceMap",
      "outputs": [
        {
          "internalType": "contract ERC20",
          "name": "",
          "type": "address"
        }
      ],
      "stateMutability": "view",
      "type": "function"
    },
    {
      "inputs": [
        {
          "internalType": "uint256",
          "name": "",
          "type": "uint256"
        }
      ],
      "name": "tokens",
      "outputs": [
        {
          "internalType": "string",
          "name": "",
          "type": "string"
        }
      ],
      "stateMutability": "view",
      "type": "function"
    },
    {
      "stateMutability": "payable",
      "type": "receive"
    }
  ],
  "bytecode": "0x60806040526040518061012001604052806040518060400160405280600a81526020017f546574686572205553440000000000000000000000000000000000000000000081525081526020016040518060400160405280600381526020017f424e42000000000000000000000000000000000000000000000000000000000081525081526020016040518060400160405280600881526020017f55534420436f696e00000000000000000000000000000000000000000000000081525081526020016040518060400160405280600581526020017f737445544800000000000000000000000000000000000000000000000000000081525081526020016040518060400160405280600481526020017f54524f4e0000000000000000000000000000000000000000000000000000000081525081526020016040518060400160405280600b81526020017f4d6174696320546f6b656e00000000000000000000000000000000000000000081525081526020016040518060400160405280600981526020017f536869626120494e55000000000000000000000000000000000000000000000081525081526020016040518060400160405280600781526020017f556e69737761700000000000000000000000000000000000000000000000000081525081526020016040518060400160405280600581526020017f65436f696e00000000000000000000000000000000000000000000000000000081525081525060009060096200023392919062000252565b50655af3107a40006002553480156200024b57600080fd5b506200043c565b828054828255906000526020600020908101928215620002a6579160200282015b82811115620002a557825182908051906020019062000294929190620002b9565b509160200191906001019062000273565b5b509050620002b591906200034a565b5090565b828054620002c790620003d7565b90600052602060002090601f016020900481019282620002eb576000855562000337565b82601f106200030657805160ff191683800117855562000337565b8280016001018555821562000337579182015b828111156200033657825182559160200191906001019062000319565b5b50905062000346919062000372565b5090565b5b808211156200036e576000818162000364919062000391565b506001016200034b565b5090565b5b808211156200038d57600081600090555060010162000373565b5090565b5080546200039f90620003d7565b6000825580601f10620003b35750620003d4565b601f016020900490600052602060002090810190620003d3919062000372565b5b50565b60006002820490506001821680620003f057607f821691505b602082108114156200040757620004066200040d565b5b50919050565b7f4e487b7100000000000000000000000000000000000000000000000000000000600052602260045260246000fd5b611d24806200044c6000396000f3fe6080604052600436106100c65760003560e01c806370ed0ada1161007f578063bf015aae11610059578063bf015aae146102b4578063c4091236146102dd578063c48dfed01461031a578063db6f63ee14610345576100cd565b806370ed0ada1461020f57806389f4b3171461023a578063a93325ed14610277576100cd565b806319b3c12d146100d257806339c5891a146100fd5780634f64b2be146101285780635463109e1461016557806363fcf7c5146101a25780636932cf81146101d2576100cd565b366100cd57005b600080fd5b3480156100de57600080fd5b506100e7610382565b6040516100f491906118e5565b60405180910390f35b34801561010957600080fd5b50610112610388565b60405161011f9190611826565b60405180910390f35b34801561013457600080fd5b5061014f600480360381019061014a919061147b565b610659565b60405161015c9190611863565b60405180910390f35b34801561017157600080fd5b5061018c600480360381019061018791906112d2565b610705565b60405161019991906118e5565b60405180910390f35b6101bc60048036038101906101b791906112d2565b6107ca565b6040516101c991906118e5565b60405180910390f35b3480156101de57600080fd5b506101f960048036038101906101f491906112d2565b610950565b6040516102069190611863565b60405180910390f35b34801561021b57600080fd5b50610224610a1a565b60405161023191906118e5565b60405180910390f35b34801561024657600080fd5b50610261600480360381019061025c9190611354565b610a22565b60405161026e91906118e5565b60405180910390f35b34801561028357600080fd5b5061029e600480360381019061029991906112d2565b610af3565b6040516102ab9190611848565b60405180910390f35b3480156102c057600080fd5b506102db60048036038101906102d691906113a8565b610b3c565b005b3480156102e957600080fd5b5061030460048036038101906102ff91906112d2565b610d63565b60405161031191906117ab565b60405180910390f35b34801561032657600080fd5b5061032f610dab565b60405161033c91906118e5565b60405180910390f35b34801561035157600080fd5b5061036c60048036038101906103679190611427565b610db1565b60405161037991906118e5565b60405180910390f35b60035481565b6060600060035490506000808267ffffffffffffffff8111156103d4577f4e487b7100000000000000000000000000000000000000000000000000000000600052604160045260246000fd5b60405190808252806020026020018201604052801561040d57816020015b6103fa611096565b8152602001906001900390816103f25790505b50905060005b8381101561064f57600060018261042a91906119d2565b90506000600460008381526020019081526020016000209050806040518060c00160405290816000820154815260200160018201805461046990611b61565b80601f016020809104026020016040519081016040528092919081815260200182805461049590611b61565b80156104e25780601f106104b7576101008083540402835291602001916104e2565b820191906000526020600020905b8154815290600101906020018083116104c557829003601f168201915b505050505081526020016002820180546104fb90611b61565b80601f016020809104026020016040519081016040528092919081815260200182805461052790611b61565b80156105745780601f1061054957610100808354040283529160200191610574565b820191906000526020600020905b81548152906001019060200180831161055757829003601f168201915b5050505050815260200160038201548152602001600482015481526020016005820160009054906101000a900473ffffffffffffffffffffffffffffffffffffffff1673ffffffffffffffffffffffffffffffffffffffff1673ffffffffffffffffffffffffffffffffffffffff1681525050848681518110610620577f4e487b7100000000000000000000000000000000000000000000000000000000600052603260045260246000fd5b602002602001018190525060018561063891906119d2565b94505050808061064790611b93565b915050610413565b5080935050505090565b6000818154811061066957600080fd5b90600052602060002001600091509050805461068490611b61565b80601f01602080910402602001604051908101604052809291908181526020018280546106b090611b61565b80156106fd5780601f106106d2576101008083540402835291602001916106fd565b820191906000526020600020905b8154815290600101906020018083116106e057829003601f168201915b505050505081565b60006001826040516107179190611794565b908152602001604051809103902060009054906101000a900473ffffffffffffffffffffffffffffffffffffffff1673ffffffffffffffffffffffffffffffffffffffff166318160ddd6040518163ffffffff1660e01b815260040160206040518083038186803b15801561078b57600080fd5b505afa15801561079f573d6000803e3d6000fd5b505050506040513d601f19601f820116820180604052508101906107c391906114a4565b9050919050565b6000803490506000670de0b6b3a7640000600254836107e99190611a28565b6107f39190611a59565b90506001846040516108059190611794565b908152602001604051809103902060009054906101000a900473ffffffffffffffffffffffffffffffffffffffff1673ffffffffffffffffffffffffffffffffffffffff1663a9059cbb33836040518363ffffffff1660e01b815260040161086e9291906117fd565b602060405180830381600087803b15801561088857600080fd5b505af115801561089c573d6000803e3d6000fd5b505050506040513d601f19601f820116820180604052508101906108c091906112a9565b6108ff576040517f08c379a00000000000000000000000000000000000000000000000000000000081526004016108f690611885565b60405180910390fd5b60006040518060400160405280600581526020017f4574686572000000000000000000000000000000000000000000000000000000815250905061094585828585610fc4565b819350505050919050565b60606001826040516109629190611794565b908152602001604051809103902060009054906101000a900473ffffffffffffffffffffffffffffffffffffffff1673ffffffffffffffffffffffffffffffffffffffff166306fdde036040518163ffffffff1660e01b815260040160006040518083038186803b1580156109d657600080fd5b505afa1580156109ea573d6000803e3d6000fd5b505050506040513d6000823e3d601f19601f82011682018060405250810190610a139190611313565b9050919050565b600047905090565b6000600183604051610a349190611794565b908152602001604051809103902060009054906101000a900473ffffffffffffffffffffffffffffffffffffffff1673ffffffffffffffffffffffffffffffffffffffff166370a08231836040518263ffffffff1660e01b8152600401610a9b91906117ab565b60206040518083038186803b158015610ab357600080fd5b505afa158015610ac7573d6000803e3d6000fd5b505050506040513d601f19601f82011682018060405250810190610aeb91906114a4565b905092915050565b6001818051602081018201805184825260208301602085012081835280955050505050506000915054906101000a900473ffffffffffffffffffffffffffffffffffffffff1681565b600183604051610b4c9190611794565b908152602001604051809103902060009054906101000a900473ffffffffffffffffffffffffffffffffffffffff1673ffffffffffffffffffffffffffffffffffffffff166323b872dd3330846040518463ffffffff1660e01b8152600401610bb7939291906117c6565b602060405180830381600087803b158015610bd157600080fd5b505af1158015610be5573d6000803e3d6000fd5b505050506040513d601f19601f82011682018060405250810190610c0991906112a9565b610c48576040517f08c379a0000000000000000000000000000000000000000000000000000000008152600401610c3f906118a5565b60405180910390fd5b600182604051610c589190611794565b908152602001604051809103902060009054906101000a900473ffffffffffffffffffffffffffffffffffffffff1673ffffffffffffffffffffffffffffffffffffffff1663a9059cbb33836040518363ffffffff1660e01b8152600401610cc19291906117fd565b602060405180830381600087803b158015610cdb57600080fd5b505af1158015610cef573d6000803e3d6000fd5b505050506040513d601f19601f82011682018060405250810190610d1391906112a9565b610d52576040517f08c379a0000000000000000000000000000000000000000000000000000000008152600401610d49906118a5565b60405180910390fd5b610d5e83838384610fc4565b505050565b6000600182604051610d759190611794565b908152602001604051809103902060009054906101000a900473ffffffffffffffffffffffffffffffffffffffff169050919050565b60025481565b600080670de0b6b3a764000083610dc89190611a28565b9050600060025482610dda9190611a59565b905080471015610e1f576040517f08c379a0000000000000000000000000000000000000000000000000000000008152600401610e16906118c5565b60405180910390fd5b3373ffffffffffffffffffffffffffffffffffffffff166108fc829081150290604051600060405180830381858888f19350505050158015610e65573d6000803e3d6000fd5b50600185604051610e769190611794565b908152602001604051809103902060009054906101000a900473ffffffffffffffffffffffffffffffffffffffff1673ffffffffffffffffffffffffffffffffffffffff166323b872dd3330876040518463ffffffff1660e01b8152600401610ee1939291906117c6565b602060405180830381600087803b158015610efb57600080fd5b505af1158015610f0f573d6000803e3d6000fd5b505050506040513d601f19601f82011682018060405250810190610f3391906112a9565b610f72576040517f08c379a0000000000000000000000000000000000000000000000000000000008152600401610f69906118a5565b60405180910390fd5b60006040518060400160405280600581526020017f45746865720000000000000000000000000000000000000000000000000000008152509050610fb886828785610fc4565b81935050505092915050565b60036000815480929190610fd790611b93565b919050555060006003549050600060046000600354815260200190815260200160002090506003548160000181905550338160050160006101000a81548173ffffffffffffffffffffffffffffffffffffffff021916908373ffffffffffffffffffffffffffffffffffffffff160217905550858160010190805190602001906110629291906110e2565b508481600201908051906020019061107b9291906110e2565b50838160030181905550828160040181905550505050505050565b6040518060c001604052806000815260200160608152602001606081526020016000815260200160008152602001600073ffffffffffffffffffffffffffffffffffffffff1681525090565b8280546110ee90611b61565b90600052602060002090601f0160209004810192826111105760008555611157565b82601f1061112957805160ff1916838001178555611157565b82800160010185558215611157579182015b8281111561115657825182559160200191906001019061113b565b5b5090506111649190611168565b5090565b5b80821115611181576000816000905550600101611169565b5090565b600061119861119384611931565b611900565b9050828152602081018484840111156111b057600080fd5b6111bb848285611b1f565b509392505050565b60006111d66111d184611931565b611900565b9050828152602081018484840111156111ee57600080fd5b6111f9848285611b2e565b509392505050565b60008135905061121081611ca9565b92915050565b60008151905061122581611cc0565b92915050565b600082601f83011261123c57600080fd5b813561124c848260208601611185565b91505092915050565b600082601f83011261126657600080fd5b81516112768482602086016111c3565b91505092915050565b60008135905061128e81611cd7565b92915050565b6000815190506112a381611cd7565b92915050565b6000602082840312156112bb57600080fd5b60006112c984828501611216565b91505092915050565b6000602082840312156112e457600080fd5b600082013567ffffffffffffffff8111156112fe57600080fd5b61130a8482850161122b565b91505092915050565b60006020828403121561132557600080fd5b600082015167ffffffffffffffff81111561133f57600080fd5b61134b84828501611255565b91505092915050565b6000806040838503121561136757600080fd5b600083013567ffffffffffffffff81111561138157600080fd5b61138d8582860161122b565b925050602061139e85828601611201565b9150509250929050565b6000806000606084860312156113bd57600080fd5b600084013567ffffffffffffffff8111156113d757600080fd5b6113e38682870161122b565b935050602084013567ffffffffffffffff81111561140057600080fd5b61140c8682870161122b565b925050604061141d8682870161127f565b9150509250925092565b6000806040838503121561143a57600080fd5b600083013567ffffffffffffffff81111561145457600080fd5b6114608582860161122b565b92505060206114718582860161127f565b9150509250929050565b60006020828403121561148d57600080fd5b600061149b8482850161127f565b91505092915050565b6000602082840312156114b657600080fd5b60006114c484828501611294565b91505092915050565b60006114d983836116e6565b905092915050565b6114ea81611ab3565b82525050565b6114f981611ab3565b82525050565b600061150a82611971565b6115148185611994565b93508360208202850161152685611961565b8060005b85811015611562578484038952815161154385826114cd565b945061154e83611987565b925060208a0199505060018101905061152a565b50829750879550505050505092915050565b61157d81611afb565b82525050565b600061158e8261197c565b61159881856119a5565b93506115a8818560208601611b2e565b6115b181611c98565b840191505092915050565b60006115c78261197c565b6115d181856119b6565b93506115e1818560208601611b2e565b6115ea81611c98565b840191505092915050565b60006116008261197c565b61160a81856119c7565b935061161a818560208601611b2e565b80840191505092915050565b6000611633600f836119b6565b91507f5472616e73666572206661696c656400000000000000000000000000000000006000830152602082019050919050565b60006116736015836119b6565b91507f546f6b656e207472616e73666572206661696c656400000000000000000000006000830152602082019050919050565b60006116b3601d836119b6565b91507f4465782069732072756e6e696e67206f6e206c6f772062616c616e63650000006000830152602082019050919050565b600060c0830160008301516116fe6000860182611776565b50602083015184820360208601526117168282611583565b915050604083015184820360408601526117308282611583565b91505060608301516117456060860182611776565b5060808301516117586080860182611776565b5060a083015161176b60a08601826114e1565b508091505092915050565b61177f81611af1565b82525050565b61178e81611af1565b82525050565b60006117a082846115f5565b915081905092915050565b60006020820190506117c060008301846114f0565b92915050565b60006060820190506117db60008301866114f0565b6117e860208301856114f0565b6117f56040830184611785565b949350505050565b600060408201905061181260008301856114f0565b61181f6020830184611785565b9392505050565b6000602082019050818103600083015261184081846114ff565b905092915050565b600060208201905061185d6000830184611574565b92915050565b6000602082019050818103600083015261187d81846115bc565b905092915050565b6000602082019050818103600083015261189e81611626565b9050919050565b600060208201905081810360008301526118be81611666565b9050919050565b600060208201905081810360008301526118de816116a6565b9050919050565b60006020820190506118fa6000830184611785565b92915050565b6000604051905081810181811067ffffffffffffffff8211171561192757611926611c69565b5b8060405250919050565b600067ffffffffffffffff82111561194c5761194b611c69565b5b601f19601f8301169050602081019050919050565b6000819050602082019050919050565b600081519050919050565b600081519050919050565b6000602082019050919050565b600082825260208201905092915050565b600082825260208201905092915050565b600082825260208201905092915050565b600081905092915050565b60006119dd82611af1565b91506119e883611af1565b9250827fffffffffffffffffffffffffffffffffffffffffffffffffffffffffffffffff03821115611a1d57611a1c611bdc565b5b828201905092915050565b6000611a3382611af1565b9150611a3e83611af1565b925082611a4e57611a4d611c0b565b5b828204905092915050565b6000611a6482611af1565b9150611a6f83611af1565b9250817fffffffffffffffffffffffffffffffffffffffffffffffffffffffffffffffff0483118215151615611aa857611aa7611bdc565b5b828202905092915050565b6000611abe82611ad1565b9050919050565b60008115159050919050565b600073ffffffffffffffffffffffffffffffffffffffff82169050919050565b6000819050919050565b6000611b0682611b0d565b9050919050565b6000611b1882611ad1565b9050919050565b82818337600083830152505050565b60005b83811015611b4c578082015181840152602081019050611b31565b83811115611b5b576000848401525b50505050565b60006002820490506001821680611b7957607f821691505b60208210811415611b8d57611b8c611c3a565b5b50919050565b6000611b9e82611af1565b91507fffffffffffffffffffffffffffffffffffffffffffffffffffffffffffffffff821415611bd157611bd0611bdc565b5b600182019050919050565b7f4e487b7100000000000000000000000000000000000000000000000000000000600052601160045260246000fd5b7f4e487b7100000000000000000000000000000000000000000000000000000000600052601260045260246000fd5b7f4e487b7100000000000000000000000000000000000000000000000000000000600052602260045260246000fd5b7f4e487b7100000000000000000000000000000000000000000000000000000000600052604160045260246000fd5b6000601f19601f8301169050919050565b611cb281611ab3565b8114611cbd57600080fd5b50565b611cc981611ac5565b8114611cd457600080fd5b50565b611ce081611af1565b8114611ceb57600080fd5b5056fea26469706673582212204a8ba52a45ea645dc43105e3fce4a32e1b9463bec76bd7a81dce22ec23edeb1a64736f6c63430008000033",
  "linkReferences": {},
  "deployedLinkReferences": {}
}